:020000040800F2
:1000000000000120E9120008491200084F12000800
:10001000551200085B120008611200080000000081
:10002000000000000000000000000000671200084F
:1000300075120008000000008312000891120008E9
:100040003913000839130008391300083913000860
:100050003913000839130008391300083913000850
:100060003913000839130008391300083913000840
:100070003913000839130008391300083913000830
:100080003913000839130008391300080000000074
:10009000000000000000000000000000391300080C
:1000A0003913000839130008391300083913000800
:1000B00039130008391300083913000839130008F0
:1000C00039130008391300083913000839130008E0
:1000D0003913000839130008391300080000000024
:1000E0003913000839130008391300080000000014
:1000F00000000000000000000000000039130008AC
:1001000000000000391300083913000839130008F3
:1001100000000000000000000000000000000000DF
:100120009D1200083913000839130008391300081C
:10013000391300080000000000000000000000006B
:10014000000000000000000000000000B1120008E4
:10015000391300083913000839130008391300084F
:1001600039130008391300080000000000000000E7
:10017000000000000000000000000000000000007F
:10018000000000003913000800000000000000001B
:040190003913000817
:1001940010B5054C237833B9044B13B10448AFF3BD
:1001A40000800123237010BDE4040020000000003F
:1001B4006481000808B5034B1BB103490348AFF33E
:1001C400008008BD00000000E804002064810008ED
:1001D40053B94AB9002908BF00281CBF4FF0FF31AA
:1001E4004FF0FF3000F074B9ADF1080C6DE904CEA6
:1001F40000F006F8DDF804E0DDE9022304B07047FE
:100204002DE9F047089D04468E46002B4DD18A42C5
:10021400944669D9B2FA82F252B101FA02F3C2F1F8
:10022400200120FA01F10CFA02FC41EA030E944089
:100234004FEA1C48210CBEFBF8F61FFA8CF708FBAA
:1002440016E341EA034306FB07F199420AD91CEB82
:10025400030306F1FF3080F01F81994240F21C81B4
:10026400023E63445B1AA4B2B3FBF8F008FB1033FC
:1002740044EA034400FB07F7A7420AD91CEB040431
:1002840000F1FF3380F00A81A74240F20781644401
:10029400023840EA0640E41B00261DB1D440002386
:1002A400C5E900433146BDE8F0878B4209D9002DEA
:1002B40000F0EF800026C5E9000130463146BDE874
:1002C400F087B3FA83F6002E4AD18B4202D38242DE
:1002D40000F2F980841A61EB030301209E46002D8D
:1002E400E0D0C5E9004EDDE702B9FFDEB2FA82F2E2
:1002F400002A40F09280A1EB0C014FEA1C471FFA40
:100304008CFE0126200CB1FBF7F307FB131140EA26
:1003140001410EFB03F0884208D91CEB010103F1F3
:10032400FF3802D2884200F2CB804346091AA4B2B5
:10033400B1FBF7F007FB101144EA01440EFB00FE89
:10034400A64508D91CEB040400F1FF3102D2A645EE
:1003540000F2BB800846A4EB0E0440EA03409CE78D
:10036400C6F12007B34022FA07FC4CEA030C20FA3A
:1003740007F401FA06F31C43F9404FEA1C4900FA5A
:1003840006F3B1FBF9F8200C1FFA8CFE09FB1811D7
:1003940040EA014108FB0EF0884202FA06F20BD94A
:1003A4001CEB010108F1FF3A80F08880884240F29A
:1003B4008580A8F102086144091AA4B2B1FBF9F0DE
:1003C40009FB101144EA014100FB0EFE8E4508D9D9
:1003D4001CEB010100F1FF346CD28E456AD902385E
:1003E400614440EA0840A0FB0294A1EB0E01A14243
:1003F400C846A64656D353D05DB1B3EB080261EBB1
:100404000E0101FA07F722FA06F3F1401F43C5E98A
:10041400007100263146BDE8F087C2F12003D840C0
:100424000CFA02FC21FA03F3914001434FEA1C4702
:100434001FFA8CFEB3FBF7F007FB10360B0C43EAF4
:10044400064300FB0EF69E4204FA02F408D91CEBA4
:10045400030300F1FF382FD29E422DD902386344A2
:100464009B1B89B2B3FBF7F607FB163341EA034142
:1004740006FB0EF38B4208D91CEB010106F1FF3891
:1004840016D28B4214D9023E6144C91A46EA004688
:1004940038E72E46284605E70646E3E61846F8E61A
:1004A4004B45A9D2B9EB020864EB0C0E0138A3E763
:1004B4004646EAE7204694E74046D1E7D0467BE744
:1004C400023B614432E7304609E76444023842E7BC
:1004D400704700BF90B583B000AF78607B681C1D87
:1004E4001021424802F0B6F9034623704FF400513C
:1004F4003F4802F0AFF903461A467B681A707B68DE
:100504005C1C4FF400413A4802F0A4F903462370FE
:100514007B689C1C1021364802F09CF9034623702A
:100524007B68DC1C2021324802F094F903462370D6
:100534007B6803F1080440212D4802F08BF903463F
:1005440023707B6803F109048021294802F082F9B1
:10055400034623707B6803F10A044FF48071244836
:1005640002F078F9034623707B6803F10B044FF41F
:1005740000711F4802F06EF9034623707B685C1D0E
:1005840020211A4802F066F9034623707B689C1DFB
:100594004021164802F05EF9034623707B68DC1D97
:1005A4008021124802F056F9034623707B6803F158
:1005B4000C0401210E4802F04DF9034623707B68B8
:1005C40003F10D0402210A4802F044F903462370A2
:1005D4007B6803F10F044FF48061054802F03AF997
:1005E4000346237000BF0C37BD4690BD0000024097
:1005F4000004024080B483B000AF786039603B6887
:100604001A787B681B781343DAB23B681A7000BF10
:100614000C37BD465DF8047B704780B483B000AFEF
:10062400786039603B689B78002B04D17B681A782A
:100634003B689A702BE03B68DB78002B04D17B6825
:100644001A783B68DA7022E03B681B79002B04D1EE
:100654007B681A783B681A7119E03B685B79002B58
:1006640004D17B681A783B685A7110E03B689B7927
:10067400002B04D17B681A783B689A7107E03B68C9
:10068400DB79002B03D17B681A783B68DA7100BFF1
:100694000C37BD465DF8047B704780B588B000AF69
:1006A400F860B9607A60BB681B68FB61BB685B6813
:1006B400BB61BB689A68FB6813447B61BB68DA68FA
:1006C400FB6813443B6179683869FFF7A6FF7968D2
:1006D4007869FFF78FFF7968F869FFF79EFF7968FB
:1006E400B869FFF787FF00BF2037BD4680BD80B4DF
:1006F40087B000AFF860B9607A603B60BB681B6884
:100704007B61BB685B683B617B691B781A467B68CD
:100714001A603B691B783B60BB689B687B61BB6864
:10072400DB683B61FB687A6913441B783B62FB68B6
:100734003A6913441B781A467B6A1A6000BF1C3757
:10074400BD465DF8047B704780B485B000AFF860A7
:10075400B9607A60FB689B007A681344BA681A60CF
:1007640000BF1437BD465DF8047B704780B586B082
:1007740000AFF860B9607A603B60FB689B007A6800
:1007840013441B681A4613469B0013449B001A46E5
:10079400BB6813447B613A687969F868FFF77DFFA9
:1007A40000BF1837BD4680BD80B586B000AFF86085
:1007B400B9607A603B6000237B6128E07B693A681A
:1007C40013441B78002B1AD17B699B007A6813446D
:1007D4001B68002B0CD13A6AB9687869FFF75DFF92
:1007E400BB681B697A6819467869FFF7ADFF0BE0AF
:1007F4003B6A7A68F9687869FFF7B8FF04E07A68B9
:1008040000217869FFF7A0FF7B6901337B617B6975
:100814000F2BD3DD00BF00BF1837BD4680BD80B4A9
:1008240083B000AF3B4683E8030000233B70002302
:10083400BB700023FB7000233B7100237B710023FA
:10084400BB710023FB7100BF0C37BD465DF8047B10
:10085400704780B487B000AF786039607B681B7CD8
:10086400002B07D17B685B681A687B689B68D31A86
:100874007B6106E07B689A687B685B681B68D31AB7
:100884007B617B685B7C002B07D17B681B681A68E3
:100894007B68DB68D31A3B6106E07B689A687B68F7
:1008A4005B681B68D31A3B617B69002BB8BF5B4252
:1008B400FB603B69002BB8BF5B42BB60FB683A68D6
:1008C4009A4203D2BB683A689A4204D37B680022F6
:1008D4009A7400231CE0FA68BB689A420CDD7B69B9
:1008E400002B04DD7B6801229A74012310E07B68ED
:1008F40004229A7404230BE03B69002B04DD7B681B
:1009040003229A74032303E07B6802229A7402236D
:1009140018461C37BD465DF8047B704780B483B02D
:1009240000AF0346FB71FB79882B00F2478101A2DB
:1009340052F823F05D0B0008610B0008650B0008FA
:10094400C10B0008690B0008C10B0008C10B0008AB
:10095400C10B00086D0B0008C10B0008C10B000897
:10096400C10B0008C10B0008C10B0008C10B000833
:10097400C10B0008710B0008750B0008790B000807
:10098400C10B00087D0B0008C10B0008C10B000857
:10099400C10B0008810B0008C10B0008C10B000843
:1009A400C10B0008C10B0008C10B0008C10B0008F3
:1009B400C10B0008850B0008890B00088D0B00088B
:1009C400C10B0008910B0008C10B0008C10B000803
:1009D400C10B0008950B0008C10B0008C10B0008EF
:1009E400C10B0008C10B0008C10B0008C10B0008B3
:1009F400C10B0008C10B0008C10B0008C10B0008A3
:100A0400C10B0008C10B0008C10B0008C10B000892
:100A1400C10B0008C10B0008C10B0008C10B000882
:100A2400C10B0008C10B0008C10B0008C10B000872
:100A3400C10B0008990B00089D0B0008A10B0008CE
:100A4400C10B0008A50B0008C10B0008C10B00086E
:100A5400C10B0008A90B0008C10B0008C10B00085A
:100A6400C10B0008C10B0008C10B0008C10B000832
:100A7400C10B0008C10B0008C10B0008C10B000822
:100A8400C10B0008C10B0008C10B0008C10B000812
:100A9400C10B0008C10B0008C10B0008C10B000802
:100AA400C10B0008C10B0008C10B0008C10B0008F2
:100AB400C10B0008C10B0008C10B0008C10B0008E2
:100AC400C10B0008C10B0008C10B0008C10B0008D2
:100AD400C10B0008C10B0008C10B0008C10B0008C2
:100AE400C10B0008C10B0008C10B0008C10B0008B2
:100AF400C10B0008C10B0008C10B0008C10B0008A2
:100B0400C10B0008C10B0008C10B0008C10B000891
:100B1400C10B0008C10B0008C10B0008C10B000881
:100B2400C10B0008C10B0008C10B0008C10B000871
:100B3400C10B0008AD0B0008B10B0008B50B000891
:100B4400C10B0008B90B0008C10B0008C10B000859
:100B5400C10B0008BD0B000801232FE002232DE088
:100B640003232BE0042329E0052327E0062325E0C3
:100B7400072323E0082321E009231FE00A231DE0C3
:100B84000B231BE00C2319E00D2317E00E2315E0C3
:100B94000F2313E0102311E011230FE012230DE0C3
:100BA40013230BE0142309E0152307E0162305E0C3
:100BB400172303E0182301E01923FFE718460C3735
:100BC400BD465DF8047B704780B485B000AFF86023
:100BD400B9607A607A6813469B0013449B001A46F6
:100BE400BB681344FB6000BF1437BD465DF8047B4B
:100BF4007047000080B586B000AFF860B9607A60D5
:100C04003B607B6800221A703968F868FFF721FEA0
:100C14000346FB753968B868FFF71BFE0346BB75CE
:100C2400FB7D013B032B2BD801A252F823F000BF1C
:100C3400550C0008650C0008450C0008750C0008EC
:100C44007B681B7843F04003DAB27B681A7017E0C4
:100C54007B681B7843F02003DAB27B681A700FE0DC
:100C64007B681B7843F01003DAB27B681A7007E0E4
:100C74007B681B7863F07F03DAB27B681A7000BF6D
:100C8400BB7D013B032B2BD801A252F823F000BFFC
:100C9400B50C0008C50C0008A50C0008D50C00080C
:100CA4007B681B7843F00403DAB27B681A7017E0A0
:100CB4007B681B7843F00203DAB27B681A700FE09A
:100CC4007B681B7843F00103DAB27B681A7007E093
:100CD4007B681B7843F00803DAB27B681A7000BFA4
:100CE4007B6818461837BD4680BD00BF90B5AFB0CD
:100CF40002AF00F021FB00F0A1F800F0A5F900F02C
:100D040007F900F081F906F0D1FD07F19403C7F863
:100D1400843007F194030833C7F880304FF4FA6342
:100D2400C7F888304FF4FA63C7F88C3007F194039E
:100D340004333B6707F194030C33FB664FF4FA6307
:100D44007B674FF4FA63BB67002387F86B30374B3C
:100D54005B68C7F8AC30364B07F158040FCB84E816
:100D64000F0007F1180340220021184607F0F0F99C
:100D740007F1100300221A605A6007F11003C7F844
:100D8400A8304FF41673C7F8A43007F19403042273
:100D94001946284800F0AAFB07F16B0207F180010D
:100DA40007F16C00D7F8A430FFF724FF1F4B1C6831
:100DB40097F86B301846FFF7B1FD03461A462146F3
:100DC400D7F8AC00FFF700FF07F158031846FFF708
:100DD40081FB164B186807F1580107F11802D7F880
:100DE400A83000930B46D7F8AC10FFF7DDFC0822BF
:100DF400D7F8A810104805F0DFF907F1100393E8BD
:100E04000300FFF70CFD642000F008FB7868BB6862
:100E140039463A460C320192009303460A46D7F803
:100E2400AC100020FFF763FCAFE700BF6C030020A9
:100E34007C810008F0060020A007002080B594B053
:100E440000AF07F1200330220021184607F080F993
:100E540007F10C0300221A605A609A60DA601A6182
:100E64000023BB60284B1B6C274A43F08053136458
:100E7400254B1B6C03F08053BB60BB6800237B6075
:100E8400224B1B6823F44043204A43F4004313607D
:100E94001E4B1B6803F440437B607B6801233B6269
:100EA4004FF480337B620223BB634FF48003FB6304
:100EB4000F233B6490237B640223BB640523FB6400
:100EC40007F12003184602F043FF0346002B01D02C
:100ED40000F012F90F23FB6001233B6100237B61C7
:100EE4000023BB610023FB6107F10C0300211846BA
:100EF40003F0A6F90346002B01D000F0FDF800BF73
:100F04005037BD4680BD00BF00380240007000402D
:100F140080B584B000AF3B4600221A605A609A60E4
:100F2400DA60364B364A1A60344B4FF480325A60DA
:100F3400324B00229A60314B01221A612F4B01225D
:100F44001A762E4B002283F820202C4B0022DA62E2
:100F54002A4B2C4A9A62294B0022DA60274B04223E
:100F6400DA61264B012283F83020244B00225A6197
:100F7400224800F077FA0346002B01D000F0BCF8B9
:100F840000233B6001237B600123BB603B46194681
:100F94001A4800F0B9FB0346002B01D000F0ACF86E
:100FA40001233B6002237B603B461946134800F053
:100FB400ABFB0346002B01D000F09EF802233B60FC
:100FC40003237B603B4619460C4800F09DFB034617
:100FD400002B01D000F090F803233B6004237B60D6
:100FE4003B461946054800F08FFB0346002B01D011
:100FF40000F082F800BF1037BD4680BDF006002027
:10100400002001400100000F80B582B000AF002332
:101014007B600C4B1B6B0B4A43F480031363094B3B
:101024001B6B03F480037B607B6800220021382063
:1010340000F0E5FE382000F0FEFE00BF0837BD4694
:1010440080BD00BF0038024080B588B000AF07F112
:101054000C0300221A605A609A60DA601A61002355
:10106400BB60224B1B6B214A43F0800313631F4B6D
:101074001B6B03F08003BB60BB6800237B601B4BCE
:101084001B6B1A4A43F001031363184B1B6B03F0E9
:1010940001037B607B6800233B60144B1B6B134A8A
:1010A40043F002031363114B1B6B03F002033B6019
:1010B4003B68F023FB6000233B6101237B6107F164
:1010C4000C0319460A4801F041FA4AF2F773FB602F
:1010D40000233B6101237B6107F10C03194605489A
:1010E40001F034FA00BF2037BD4680BD003802400D
:1010F400000002400004024080B400AF72B600BF9A
:10110400FEE7000080B483B000AF00237B60104B87
:101114005B6C0F4A43F4804353640D4B5B6C03F4E4
:1011240080437B607B6800233B60094B1B6C084A4F
:1011340043F080531364064B1B6C03F080533B60F5
:101144003B6800BF0C37BD465DF8047B704700BFA9
:101154000038024080B58AB000AF786007F114030C
:1011640000221A605A609A60DA601A617B681B6810
:101174002F4A934257D100233B612E4B5B6C2D4A7F
:1011840043F4807353642B4B5B6C03F480733B61B7
:101194003B690023FB60274B1B6B264A43F001038A
:1011A4001363244B1B6B03F00103FB60FB680F23E9
:1011B4007B610323BB610023FB6107F11403194620
:1011C4001D4801F0C3F91D4B1D4A1A601B4B002238
:1011D4005A601A4B00229A60184B0022DA60174BAF
:1011E4004FF480621A61154B4FF480525A61134BCD
:1011F4004FF480429A61114B0022DA610F4B4FF495
:1012040080321A620D4B00225A620C4800F02EFE06
:101214000346002B01D0FFF76FFF7B68074A9A63F0
:10122400064A7B68936300BF2837BD4680BD00BF74
:10123400002001400038024000000240380700202E
:101244001064024080B400AFFEE780B400AFFEE754
:1012540080B400AFFEE780B400AFFEE780B400AF17
:10126400FEE780B400AF00BFBD465DF8047B704765
:1012740080B400AF00BFBD465DF8047B704780B406
:1012840000AF00BFBD465DF8047B704780B500AF7A
:1012940000F0A4F800BF80BD80B500AF024800F0A4
:1012A400EBFE00BF80BD00BF3807002080B500AF53
:1012B400024801F037FC00BF80BD00BF7C0C002059
:1012C40080B400AF064BD3F88830054A43F470036A
:1012D400C2F8883000BFBD465DF8047B704700BF8C
:1012E40000ED00E0DFF834D00D480E490E4A00232B
:1012F40002E0D458C4500433C4188C42F9D30B4AC6
:101304000B4C002301E013600432A242FBD3FFF72D
:10131400D7FF06F0F9FEFFF7E9FC70470000012053
:1013240000000020E4040020FC810008E404002004
:101334009C110020FEE7000080B500AF0E4B1B6837
:101344000D4A43F4007313600B4B1B680A4A43F4C1
:1013540080631360084B1B68074A43F4807313606F
:10136400032000F041FD0F2000F008F8FFF7CAFE4B
:101374000023184680BD00BF003C024080B582B007
:1013840000AF7860124B1A68124B1B7819464FF461
:101394007A73B3FBF1F3B2FBF3F3184600F059FD93
:1013A4000346002B01D001230EE07B680F2B0AD8E3
:1013B400002279684FF0FF3000F021FD064A7B6877
:1013C4001360002300E0012318460837BD4680BDA2
:1013D400D4030020DC030020D803002080B400AF35
:1013E400064B1B781A46064B1B681344044A1360C9
:1013F40000BFBD465DF8047B704700BFDC030020DE
:101404009807002080B400AF034B1B681846BD4604
:101414005DF8047B704700BF9807002080B584B056
:1014240000AF7860FFF7EEFFB8607B68FB60FB6895
:10143400B3F1FF3F05D00A4B1B781A46FB681344EF
:10144400FB6000BFFFF7DEFF0246BB68D31AFA68F1
:101454009A42F7D800BF00BF1037BD4680BD00BF19
:10146400DC03002080B584B000AF78600023FB73F8
:101474007B68002B01D1012333E07B681B6C002BBC
:1014840009D17868FFF766FE7B6800225A647B689E
:10149400002283F83C207B681B6C03F01003002BB4
:1014A40018D17B681B6C23F4885323F0020343F0A8
:1014B40002027B681A64786800F048FA7B680022AC
:1014C4005A647B681B6C23F0030343F001027B68BE
:1014D4001A6401E00123FB737B68002283F83C203B
:1014E400FB7B18461037BD4680BD000080B586B032
:1014F40000AFF860B9607A6000233B61FB6893F841
:101504003C30012B01D10223CEE0FB68012283F899
:101514003C20FB681B689B6803F00103012B18D077
:10152400FB681B689A68FB681B6842F001029A60BA
:101534005F4B1B685F4AA2FB03239A0C13465B00B4
:1015440013443B6102E03B69013B3B613B69002B77
:10155400F9D1FB681B689B6803F48073B3F5807F43
:1015640007D1FB681B689A68FB681B6822F48072C9
:101574009A60FB681B689B6803F00103012B40F031
:101584008680FB681B6C23F4E06323F0010343F4BF
:101594008072FB681A64FB681B685B6803F48063F1
:1015A400002B07D0FB681B6C23F4405343F4805298
:1015B400FB681A64FB681B6C03F48053B3F5805F0B
:1015C40006D1FB685B6C23F00602FB685A6402E0F8
:1015D400FB6800225A64FB68002283F83C20364BE7
:1015E4007B61FB689B6B354ADA63FB689B6B344A0F
:1015F4001A64FB689B6B334ADA64FB681B686FF000
:1016040022021A60FB681B685A68FB681B6842F078
:1016140080625A60FB681B689A68FB681B6842F426
:1016240080729A60FB68986BFB681B684C331946A0
:10163400BA687B6800F0C8FC7B695B6803F01F0331
:10164400002B0FD1FB681B689B6803F04053002BF1
:1016540029D1FB681B689A68FB681B6842F08042CA
:101664009A6020E0FB681B68174A93421BD1FB6811
:101674001B689B6803F04053002B14D1FB681B6864
:101684009A68FB681B6842F080429A600BE0FB6832
:101694001B6C43F01002FB681A64FB685B6C43F03C
:1016A4000102FB685A64002318461837BD4680BD02
:1016B400D403002083DE1B4300230140491B0008A0
:1016C400031C00081F1C00080020014080B483B0E4
:1016D40000AF786000BF0C37BD465DF8047B7047EF
:1016E40080B483B000AF786000BF0C37BD465DF8AE
:1016F400047B704780B483B000AF786000BF0C37C0
:10170400BD465DF8047B704780B485B000AF786057
:1017140039600023BB607B6893F83C30012B01D116
:10172400022305E17B68012283F83C203B681B68A7
:10173400092B25D97B681B68D9683B681B689BB259
:101744001A4613465B0013441E3B072202FA03F3B6
:10175400DA437B681B680A40DA607B681B68D968D7
:101764003B689A683B681B689BB2184603465B005B
:1017740003441E3B9A407B681B680A43DA6022E0FC
:101784007B681B6819693B681B689BB21A46134641
:101794005B001344072202FA03F3DA437B681B68F5
:1017A4000A401A617B681B6819693B689A683B6840
:1017B4001B689BB2184603465B0003449A407B684F
:1017C4001B680A431A613B685B68062B24D87B6854
:1017D4001B68596B3B685A6813469B001344053BCE
:1017E4001F2202FA03F3DA437B681B680A405A6338
:1017F4007B681B68596B3B681B689BB218463B6847
:101804005A6813469B001344053B00FA03F27B68B5
:101814001B680A435A634CE03B685B680C2B24D872
:101824007B681B68196B3B685A6813469B0013441A
:10183400233B1F2202FA03F3DA437B681B680A4046
:101844001A637B681B68196B3B681B689BB218465C
:101854003B685A6813469B001344233B00FA03F287
:101864007B681B680A431A6323E07B681B68D96A98
:101874003B685A6813469B001344413B1F2202FAFB
:1018840003F3DA437B681B680A40DA627B681B68EF
:10189400D96A3B681B689BB218463B685A68134672
:1018A4009B001344413B00FA03F27B681B680A4324
:1018B400DA62224BFB607B681B68214A934209D1A0
:1018C4003B681B68122B05D1FB685B6843F48002FC
:1018D400FB685A607B681B68194A934223D13B68B2
:1018E4001B68102B03D03B681B68112B1BD1FB68B2
:1018F4005B6843F40002FB685A603B681B68102B6A
:1019040011D1104B1B68104AA2FB03239A0C1346F7
:101914009B0013445B00BB6002E0BB68013BBB60FF
:10192400BB68002BF9D17B68002283F83C2000239C
:1019340018461437BD465DF8047B70470023014008
:1019440000200140D403002083DE1B4380B485B013
:1019540000AF7860794BFB60FB685B6823F440322E
:10196400FB685A60FB685A687B685B681A43FB68CB
:101974005A607B681B685A687B681B6822F4807213
:101984005A607B681B6859687B681B691A027B680C
:101994001B680A435A607B681B685A687B681B682B
:1019A40022F040725A607B681B6859687B689A68A9
:1019B4007B681B680A435A607B681B689A687B686B
:1019C4001B6822F400629A607B681B6899687B68D4
:1019D400DA687B681B680A439A607B689B6A584A8A
:1019E400934222D07B681B689A687B681B6822F04C
:1019F40070629A607B681B6899687B689A6A7B68E6
:101A04001B680A439A607B681B689A687B681B683A
:101A140022F040529A607B681B6899687B68DA6A96
:101A24007B681B680A439A600FE07B681B689A68AE
:101A34007B681B6822F070629A607B681B689A68F6
:101A44007B681B6822F040529A607B681B689A6826
:101A54007B681B6822F002029A607B681B689968A5
:101A64007B681B7E5A007B681B680A439A607B680C
:101A740093F82030002B1BD07B681B685A687B6866
:101A84001B6842F400625A607B681B685A687B6872
:101A94001B6822F460425A607B681B6859687B6843
:101AA4005B6A013B5A037B681B680A435A6007E080
:101AB4007B681B685A687B681B6822F400625A6062
:101AC4007B681B68DA6A7B681B6822F47002DA623E
:101AD4007B681B68D96A7B68DB69013B1A057B68F4
:101AE4001B680A43DA627B681B689A687B681B6818
:101AF40022F400729A607B681B6899687B6893F88B
:101B040030305A027B681B680A439A607B681B6802
:101B14009A687B681B6822F480629A607B681B6801
:101B240099687B685B699A027B681B680A439A60C0
:101B340000BF1437BD465DF8047B704700230140A5
:101B44000100000F80B584B000AF78607B689B6BA8
:101B5400FB60FB681B6C03F05003002B3CD1FB685B
:101B64001B6C43F40072FB681A64FB681B689B6877
:101B740003F04053002B2BD1FB681B7E002B27D195
:101B8400FB681B68DB6A03F47003002B06D0FB6858
:101B94001B689B6803F48063002B19D1FB681B68E6
:101BA4005A68FB681B6822F020025A60FB681B6CB1
:101BB40023F48072FB681A64FB681B6C03F4805383
:101BC400002B05D1FB681B6C43F00102FB681A640F
:101BD400F868FFF77BFD0EE0FB681B6C03F0100355
:101BE400002B03D0F868FFF785FD04E0FB689B6BCE
:101BF400DB6C7868984700BF1037BD4680BD80B560
:101C040084B000AF78607B689B6BFB60F868FFF77B
:101C140067FD00BF1037BD4680BD80B584B000AFFE
:101C240078607B689B6BFB60FB6840221A64FB68EE
:101C34005B6C43F00402FB685A64F868FFF75AFDD2
:101C440000BF1037BD4680BD80B485B000AF78605A
:101C54007B6803F00703FB600C4BDB68BB60BA686E
:101C64004FF6FF031340BB60FB681A02BB681343C3
:101C740043F0BF6343F40033BB60044ABB68D360E2
:101C840000BF1437BD465DF8047B704700ED00E0EB
:101C940080B400AF044BDB681B0A03F0070318464B
:101CA400BD465DF8047B704700ED00E080B483B06E
:101CB40000AF0346FB7197F90730002B0BDBFB7970
:101CC40003F01F02074997F907305B09012000FA66
:101CD40002F241F8232000BF0C37BD465DF8047BB7
:101CE400704700BF00E100E080B483B000AF03465A
:101CF4003960FB7197F90730002B0ADB3B68DAB2D5
:101D04000C4997F907301201D2B20B4483F800232F
:101D14000AE03B68DAB20849FB7903F00F03043B9D
:101D24001201D2B20B441A7600BF0C37BD465DF8DF
:101D3400047B704700E100E000ED00E080B489B06E
:101D440000AFF860B9607A60FB6803F00703FB61D9
:101D5400FB69C3F10703042B28BF0423BB61FB69A0
:101D64000433062B02D9FB69033B00E000237B61AB
:101D74004FF0FF32BB6902FA03F3DA43BB681A403F
:101D84007B699A404FF0FF317B6901FA03F3D94331
:101D94007B680B40134318462437BD465DF8047B2B
:101DA4007047000080B582B000AF78607B68013B6B
:101DB400B3F1807F01D301230FE00A4A7B68013B22
:101DC40053600F214FF0FF30FFF78EFF054B0022C9
:101DD4009A60044B07221A60002318460837BD4650
:101DE40080BD00BF10E000E080B582B000AF786035
:101DF4007868FFF729FF00BF0837BD4680BD80B56E
:101E040086B000AF0346B9607A60FB7300237B6140
:101E1400FFF73EFF78617A68B9687869FFF78EFF4B
:101E2400024697F90F3011461846FFF75DFF00BFD1
:101E34001837BD4680BD80B582B000AF0346FB7144
:101E440097F907301846FFF731FF00BF0837BD4642
:101E540080BD80B582B000AF78607868FFF7A2FFDC
:101E6400034618460837BD4680BD000080B586B0DD
:101E740000AF786000237B61FFF7C4FA38617B68A8
:101E8400002B01D1012399E07B68022283F83520DD
:101E94007B68002283F834207B681B681A687B689F
:101EA4001B6822F001021A600FE0FFF7ABFA02464A
:101EB4003B69D31A052B08D97B6820225A657B68B5
:101EC400032283F83520032378E07B681B681B68B2
:101ED40003F00103002BE8D17B681B681B687B615E
:101EE4007A69384B13407B617B685A687B689B68CE
:101EF4001A437B68DB681A437B681B691A437B6857
:101F04005B691A437B689B691A437B68DB691A43E4
:101F14007B681B6A13437A6913437B617B685B6A42
:101F2400042B07D17B68DA6A7B681B6B13437A69DD
:101F340013437B617B681B687A691A607B681B6842
:101F44005B697B617B6923F007037B617B685B6A68
:101F54007A6913437B617B685B6A042B17D17B68C6
:101F64009B6A7A6913437B617B68DB6A002B0ED022
:101F7400786800F06FFA0346002B08D07B68402293
:101F84005A657B68012283F83520012316E07B68BB
:101F94001B687A695A61786800F026FA0346FB6088
:101FA4007B68DB6D3F229A40FB689A607B68002265
:101FB4005A657B68012283F83520002318461837B8
:101FC400BD4680BD3F8010F080B586B000AFF8609C
:101FD400B9607A603B600023FB75FB689B6D3B61D5
:101FE400FB6893F83430012B01D1022340E0FB68F5
:101FF400012283F83420FB6893F83530DBB2012BDF
:102004002FD1FB68022283F83520FB6800225A6531
:102014003B687A68B968F86800F0B8F9FB68DB6D6A
:102024003F229A403B699A60FB681B681A68FB6808
:102034001B6842F016021A60FB681B6C002B07D069
:10204400FB681B681A68FB681B6842F008021A6088
:10205400FB681B681A68FB681B6842F001021A607F
:1020640005E0FB68002283F834200223FB75FB7D26
:1020740018461837BD4680BD80B586B000AF78607D
:102084000023BB608E4B1B688E4AA2FB03239B0A72
:102094007B617B689B6D3B613B691B68FB607B6874
:1020A400DB6D08229A40FB681340002B1AD07B6832
:1020B4001B681B6803F00403002B13D07B681B68A8
:1020C4001A687B681B6822F004021A607B68DB6D67
:1020D40008229A403B699A607B685B6D43F0010279
:1020E4007B685A657B68DB6D01229A40FB6813406C
:1020F400002B12D07B681B685B6903F08003002B04
:102104000BD07B68DB6D01229A403B699A607B6847
:102114005B6D43F002027B685A657B68DB6D0422C9
:102124009A40FB681340002B12D07B681B681B6825
:1021340003F00203002B0BD07B68DB6D04229A4072
:102144003B699A607B685B6D43F004027B685A6567
:102154007B68DB6D10229A40FB681340002B43D050
:102164007B681B681B6803F00803002B3CD07B686A
:10217400DB6D10229A403B699A607B681B681B6880
:1021840003F48023002B18D07B681B681B6803F4BE
:102194000023002B08D17B681B6C002B24D07B68A8
:1021A4001B6C786898471FE07B689B6C002B1BD0E6
:1021B4007B689B6C7868984716E07B681B681B6893
:1021C40003F48073002B07D17B681B681A687B6853
:1021D4001B6822F008021A607B681B6C002B03D07A
:1021E4007B681B6C786898477B68DB6D20229A407B
:1021F400FB681340002B00F08F807B681B681B6812
:1022040003F01003002B00F087807B68DB6D202235
:102214009A403B699A607B6893F83530DBB2052BB2
:1022240036D17B681B681A687B681B6822F016022B
:102234001A607B681B685A697B681B6822F08002FD
:102244005A617B681B6C002B03D17B689B6C002B51
:1022540007D07B681B681A687B681B6822F0080239
:102264001A607B68DB6D3F229A403B699A607B6809
:10227400012283F835207B68002283F834207B68B0
:102284001B6D002B7ED07B681B6D7868984779E0C6
:102294007B681B681B6803F48023002B1DD07B68BC
:1022A4001B681B6803F40023002B0DD17B685B6C57
:1022B400002B31D07B685B6C786898472CE000BFBA
:1022C400D4030020B5814E1B7B68DB6B002B23D02D
:1022D4007B68DB6B786898471EE07B681B681B682B
:1022E40003F48073002B0FD17B681B681A687B682A
:1022F4001B6822F010021A607B68012283F83520E3
:102304007B68002283F834207B68DB6B002B03D0CE
:102314007B68DB6B786898477B685B6D002B32D0F9
:102324007B685B6D03F00103002B22D07B680522E0
:1023340083F835207B681B681A687B681B6822F069
:1023440001021A60BB680133BB607A699A4207D301
:102354007B681B681B6803F00103002BF2D100E0CB
:1023640000BF7B68012283F835207B68002283F854
:1023740034207B68DB6C002B05D07B68DB6C7868D1
:10238400984700E000BF1837BD4680BD80B485B0D3
:1023940000AFF860B9607A603B60FB681B681A683C
:1023A400FB681B6822F480221A60FB681B683A6889
:1023B4005A60FB689B68402B08D1FB681B687A68ED
:1023C4009A60FB681B68BA68DA6007E0FB681B6800
:1023D400BA689A60FB681B687A68DA6000BF1437D1
:1023E400BD465DF8047B704780B485B000AF78606B
:1023F4007B681B68DBB2103B144AA2FB03231B0956
:10240400FB60134AFB6813441B781A467B68DA6541
:10241400FB68032B09D97B681B6823F47F7323F0C3
:1024240003031A1D7B689A6507E07B681B6823F425
:102434007F7323F003037A6893657B689B6D18466A
:102444001437BD465DF8047B704700BFABAAAAAA47
:10245400E481000880B485B000AF78600023FB738A
:102464007B689B6ABB607B689B69002B1FD1BB6840
:10247400032B56D801A252F823F000BF9124000880
:10248400A324000891240008272500087B68DB6A40
:1024940003F08073002B46D00123FB7343E07B6879
:1024A400DB6AB3F1C07F40D10123FB733DE07B685D
:1024B4009B69B3F5005F21D1BB68032B37D801A218
:1024C40052F823F0D9240008DF240008D924000896
:1024D400F12400080123FB7330E07B68DB6A03F01E
:1024E4008073002B25D00123FB7322E07B68DB6A19
:1024F400B3F1C07F1FD10123FB731CE0BB68022B27
:1025040003D9BB68032B03D018E00123FB7315E048
:102514007B68DB6A03F08073002B0ED00123FB730E
:102524000BE000BF0AE000BF08E000BF06E000BF08
:1025340004E000BF02E000BF00E000BFFB7B1846E0
:102544001437BD465DF8047B704700BF80B489B082
:1025540000AF7860396000237B6100233B61002376
:10256400BB610023FB6159E10122FB6902FA03F319
:102574007B613B681B687A6913403B613A697B69FC
:102584009A4240F048813B685B6803F00303012BE7
:1025940005D03B685B6803F00303022B30D17B68F2
:1025A4009B68BB61FB695B00032202FA03F3DB4314
:1025B400BA691340BB613B68DA68FB695B0002FAE5
:1025C40003F3BA691343BB617B68BA699A607B6899
:1025D4005B68BB610122FB6902FA03F3DB43BA695E
:1025E4001340BB613B685B681B0903F00102FB6994
:1025F40002FA03F3BA691343BB617B68BA695A6090
:102604003B685B6803F00303032B17D07B68DB682C
:10261400BB61FB695B00032202FA03F3DB43BA6983
:102624001340BB613B689A68FB695B0002FA03F3E1
:10263400BA691343BB617B68BA69DA603B685B685B
:1026440003F00303022B23D1FB69DA087B68083209
:1026540053F82230BB61FB6903F007039B000F2290
:1026640002FA03F3DB43BA691340BB613B681A699E
:10267400FB6903F007039B0002FA03F3BA691343EF
:10268400BB61FB69DA087B680832B96943F8221038
:102694007B681B68BB61FB695B00032202FA03F3DE
:1026A400DB43BA691340BB613B685B6803F0030218
:1026B400FB695B0002FA03F3BA691343BB617B68ED
:1026C400BA691A603B685B6803F44033002B00F07E
:1026D400A2800023FB60574B5B6C564A43F4804353
:1026E4005364544B5B6C03F48043FB60FB68524AB5
:1026F400FB699B08023352F82330BB61FB6903F08A
:1027040003039B000F2202FA03F3DB43BA6913406D
:10271400BB617B68494A934219D07B68484A93421B
:1027240013D07B68474A93420DD07B68464A934254
:1027340007D07B68454A934201D1042308E007236C
:1027440006E0032304E0022302E0012300E0002367
:10275400FA6902F0030292009340BA691343BB6121
:102764003549FB699B080233BA6941F82320384B89
:102774009B68BB613B69DB43BA691340BB613B683F
:102784005B6803F48013002B03D0BA693B691343DD
:10279400BB612F4ABB6993602D4BDB68BB613B690E
:1027A400DB43BA691340BB613B685B6803F4001305
:1027B400002B03D0BA693B691343BB61244ABB694C
:1027C400D360234B5B68BB613B69DB43BA6913404D
:1027D400BB613B685B6803F40033002B03D0BA6928
:1027E4003B691343BB611A4ABB695360184B1B68AE
:1027F400BB613B69DB43BA691340BB613B685B68FF
:1028040003F48033002B03D0BA693B691343BB61E3
:102814000F4ABB691360FB690133FB61FB690F2B32
:102824007FF6A2AE00BF00BF2437BD465DF8047B2F
:10283400704700BF003802400038014000000240E9
:102844000004024000080240000C02400010024054
:10285400003C014080B485B000AF78600B467B80BB
:102864007B681A697B881340002B02D00123FB7319
:1028740001E00023FB73FB7B18461437BD465DF86B
:10288400047B7047F0B58FB00AAF78607B68002B8B
:1028940001D101230FE17B681B68BB607B6893F85F
:1028A400BD34DBB2002B06D17B68002283F8BC2444
:1028B400786805F031F97B68032283F8BD24BB688E
:1028C400DB6B03F48073002B02D17B6800221A6156
:1028D4007B681B68184601F080FF7B681B683B60BF
:1028E4007E686D4606F110040FCC0FC50FCC0FC5E2
:1028F40094E8030085E80300331D0ECB386801F02B
:1029040057FE0346002B05D07B68022283F8BD24C2
:102914000123D0E07B681B680021184601F06EFF9C
:102924000023FB734AE0FA7B79681346DB00134407
:102934009B000B443D3301221A70FA7B79681346DD
:10294400DB0013449B000B443C33FA7B1A70FA7B84
:10295400FB7B98B279681346DB0013449B000B445D
:10296400443302461A80FA7B79681346DB00134429
:102974009B000B44403300221A70FA7B796813469B
:10298400DB0013449B000B44483300221A60FA7B9B
:1029940079681346DB0013449B000B444C3300223C
:1029A4001A60FA7B79681346DB0013449B000B44DE
:1029B400543300221A60FB7B0133FB73FA7B7B6880
:1029C4005B689A42AFD30023FB7344E0FA7B7968D7
:1029D4001346DB0013449B000B4403F27D230022C7
:1029E4001A70FA7B79681346DB0013449B000B448E
:1029F40003F51F73FA7B1A70FA7B79681346DB00C0
:102A040013449B000B4403F5207300221A70FA7BD5
:102A140079681346DB0013449B000B4403F52273CF
:102A240000221A60FA7B79681346DB0013449B008A
:102A34000B4403F5237300221A60FA7B796813466A
:102A4400DB0013449B000B4403F5257300221A603A
:102A5400FB7B0133FB73FA7B7B685B689A42B5D3DB
:102A64007B681B683B607E686D4606F110040FCCE2
:102A74000FC50FCC0FC594E8030085E80300331D90
:102A84000ECB386801F006FF0346002B05D07B68A7
:102A9400022283F8BD2401230DE07B68002283F821
:102AA40038207B68012283F8BD247B681B681846A4
:102AB40003F055F8002318461437BD46F0BD80B521
:102AC40084B000AF78607B681B68FB607B6893F818
:102AD400BC34012B01D1022320E07B68012283F85E
:102AE400BC247B689B6A012B09D17B689B69012B01
:102AF40005D0FB689B6B43F48032FB689A637B6868
:102B04001B68184601F058FE7B681B68184603F0E2
:102B140005F87B68002283F8BC240023184610378C
:102B2400BD4680BD90B58DB000AF78607B681B68F2
:102B34003B623B6AFB617B681B68184603F0C3F881
:102B44000346002B40F08A847B681B68184603F018
:102B540027F80346002B00F08084FB6903F500632B
:102B64009B681B0AC3F30D027B68C3F8FC247B68D3
:102B74001B68184603F014F8034603F00203022B03
:102B840007D17B681B685A697B681B6802F00202E4
:102B94005A617B681B68184603F002F8034603F089
:102BA4001003102B61D17B681B689A697B681B68D2
:102BB40022F010029A613B6A1B6ABB61BB6903F095
:102BC4000F021346DB0013449B0003F51E737A685F
:102BD400134404337B61BB695B0C03F00F03022BCA
:102BE40024D1BA6947F6F0731340002B35D07B69C2
:102BF4001969BB691B099BB2C3F30A039BB21A464A
:102C0400386A02F039FE7B691A69BB691B09C3F390
:102C14000A031A447B691A617B691A6ABB691B0936
:102C2400C3F30A031A447B691A6216E0BB695B0C9E
:102C340003F00F03062B10D17B6803F2C443082270
:102C44001946386A02F018FE7B691A6ABB691B09C7
:102C5400C3F30A031A447B691A627B681B689A6986
:102C64007B681B6842F010029A617B681B681846F7
:102C740002F096FF034603F40023B3F5002F40F05F
:102C8400A78000237B627B681B68184602F09BFFC9
:102C9400B86299E0BB6A03F00103002B00F08E8058
:102CA4007B681B687A6AD2B21146184602F0BFFFED
:102CB40038613B6903F00103002B0CD07B6A5A0195
:102CC400FB69134403F530631A4601239360796A60
:102CD400786800F0ABFE3B6903F00803002B0CD0CE
:102CE4007B6A5A01FB69134403F530631A460823CF
:102CF4009360796A786800F081FF3B6903F0100300
:102D0400002B08D07B6A5A01FB69134403F5306336
:102D14001A46102393603B6903F00203002B30D062
:102D24003B6A5B6903F08003802B09D1FB6903F5DF
:102D340000635B68FA6902F5006243F480635360E0
:102D44007A6A1346DB0013449B0003F51E737A680A
:102D5400134404337B617B69DB78012B08D17B69E5
:102D64000022DA707B6ADBB21946786804F0D0FF7F
:102D74007B6A5A01FB69134403F530631A46022344
:102D840093603B6903F02003002B08D07B6A5A014F
:102D9400FB69134403F530631A46202393603B69AF
:102DA40003F40053002B09D07B6A5A01FB691344D6
:102DB40003F530631A464FF4005393607B6A013382
:102DC4007B62BB6A5B08BB62BB6A002B7FF462AFA9
:102DD4007B681B68184602F0E3FE034603F4802375
:102DE400B3F5802F40F0DB807B681B68184602F047
:102DF40004FFB86200237B62CDE0BB6A03F00103E9
:102E0400002B00F0C2807B681B687A6AD2B211463C
:102E1400184602F02AFF38613B6903F00103002BD6
:102E240057D07B6A03F00F03012202FA03F3FB601D
:102E3400FB6903F500635A6BFB68DB43F96901F531
:102E4400006113404B637B6A5A01FB69134403F529
:102E540010631A46012393607B681B69012B32D1EE
:102E640079687A6A1346DB0013449B000B444C33A5
:102E7400196878687A6A1346DB0013449B0003449C
:102E840048331B68194478687A6A1346DB00134494
:102E94009B0003444C3319607B6A002B13D179687F
:102EA4007A6A1346DB0013449B000B4454331B68BB
:102EB400002B08D17B6818687B6803F2C4431A4668
:102EC400012102F031FF7B6ADBB21946786804F015
:102ED400A4FE3B6903F00803002B08D07B6A5A0167
:102EE400FB69134403F510631A46082393603B6996
:102EF40003F01003002B08D07B6A5A01FB691344CA
:102F040003F510631A46102393603B6903F04003F2
:102F1400002B08D07B6A5A01FB69134403F5106344
:102F24001A46402393603B6903F00203002B23D02D
:102F3400796A386A01F012FE7A6A1346DB00134498
:102F44009B0038337A68134404337B617B69DB78F4
:102F5400012B08D17B690022DA707B6ADBB2194647
:102F6400786804F0E7FE7B6A5A01FB69134403F5B1
:102F740010631A46022393603B6903F08003002B1D
:102F840003D0796A786800F0C3FC7B6A01337B6202
:102F9400BB6A5B08BB62BB6A002B7FF42EAF7B6805
:102FA4001B68184602F0FCFD034603F00043B3F12E
:102FB400004F22D1FB6903F500635B68FA6902F5EF
:102FC400006223F0010353607B6893F8F434012B0F
:102FD40008D17B68002283F8F4240021786800F08B
:102FE400ABFE02E0786804F085FE7B681B685A69D2
:102FF4007B681B6802F000425A617B681B681846B4
:1030040002F0CEFD034603F40063B3F5006F12D162
:10301400FB6903F500639B6803F00103012B02D1F4
:10302400786804F041FE7B681B685A697B681B68FA
:1030340002F400625A617B681B68184602F0B0FD16
:10304400034603F48053B3F5805F40F0B780FB6917
:1030540003F500635B68FA6902F5006223F001037B
:1030640053607B681B681021184601F077FD00232C
:10307400FB6246E0FB6A5A01FB69134403F51063E3
:103084001A464FF67F339360FB6A5A01FB69134477
:1030940003F510631B68FA6A5101FA690A4402F5E0
:1030A400106223F400131360FB6A5A01FB69134492
:1030B40003F530631A464FF67F339360FB6A5A0177
:1030C400FB69134403F530631B68FA6A5101FA691A
:1030D4000A4402F5306223F400131360FB6A5A01B8
:1030E400FB69134403F530631B68FA6A5101FA69FA
:1030F4000A4402F5306243F000631360FB6A013353
:10310400FB627B685B68FA6A9A42B3D3FB6903F596
:103114000063DB69FA6902F5006243F00113D361CD
:103124007B681B6B002B16D0FB6903F50063D3F897
:103134008430FA6902F5006243F00B03C2F884306C
:10314400FB6903F500635B6CFA6902F5006243F006
:103154000B03536415E0FB6903F500635B69FA69CB
:1031640002F5006243F4005343F02B035361FB69FF
:1031740003F500631B69FA6902F5006243F00B036F
:103184001361FB6903F500631B68FA6902F50062C9
:1031940023F4FE6313607B6818687B681B69D9B2EB
:1031A4007B6803F2C4431A4602F0BEFD7B681B68C9
:1031B4005A697B681B6802F480525A617B681B68F9
:1031C400184602F0EDFC034603F40053B3F5005F28
:1031D40024D17B681B68184602F083FD7B681B685A
:1031E400184601F038FD03461A467B68DA607B68AE
:1031F4001C6801F0D1F901467B68DB68DBB21A4632
:10320400204601F037FA786804F02FFD7B681B68CC
:103214005A697B681B6802F400525A617B681B6818
:10322400184602F0BDFC034603F00803082B0AD13C
:10323400786804F00CFD7B681B685A697B681B681E
:1032440002F008025A617B681B68184602F0A8FC69
:10325400034603F08003802B22D13B6A9B6923F051
:1032640080023B6A9A6101237B6214E079687A6A7E
:103274001346DB0013449B000B4403F27F231B78AB
:10328400012B05D17B6ADBB21946786800F00FFB8D
:103294007B6A01337B627B685B687A6A9A42E5D316
:1032A4007B681B68184602F07BFC034603F480131A
:1032B400B3F5801F3BD101237B622BE07B6A5A016B
:1032C400FB69134403F510631B68BB6179687A6A70
:1032D4001346DB0013449B000B4440331B78012B43
:1032E40015D1BB69002B12DA79687A6A1346DB00C0
:1032F40013449B000B443F3301221A707B6ADBB2F8
:1033040063F07F03DBB21946786800F0D0FA7B6A79
:1033140001337B627B685B687A6A9A42CED37B68AE
:103324001B685A697B681B6802F480125A617B68C7
:103334001B68184602F034FC034603F40013B3F58B
:10334400001F55D101237B6245E07B6A5A01FB696A
:10335400134403F530631B68BB6179687A6A1346CA
:10336400DB0013449B000B4403F520731B78012BF3
:103374002ED1BB69002B2BDABB6903F480327B6846
:10338400D3F8FC3403F001039A4221D179687A6AB4
:103394001346DB0013449B000B4403F27F230122FA
:1033A4001A703B6A9B6943F080023B6A9A613B6AEC
:1033B4005B6903F08003002B0AD1FB6903F500630A
:1033C4005B68FA6902F5006243F40073536007E036
:1033D4007B6A01337B627B685B687A6A9A42B4D306
:1033E4007B681B685A697B681B6802F400125A6187
:1033F4007B681B68184602F0D3FB034603F0804346
:10340400B3F1804F0AD1786804F0A6FC7B681B688E
:103414005A697B681B6802F080425A617B681B68AA
:10342400184602F0BDFB034603F00403042B15D138
:103434007B681B685B68BB61BB6903F00403002BFA
:1034440002D0786804F096FC7B681B6859687B6836
:103454001B68BA690A435A6000E000BF3437BD46AE
:1034640090BD80B582B000AF78600B46FB707B687E
:1034740093F8BC34012B01D1022313E07B680122B1
:1034840083F8BC247B68FA7883F838207B681B684F
:10349400FA781146184602F01BFB7B68002283F879
:1034A400BC24002318460837BD4680BD80B584B0CF
:1034B40000AF7860084611461A460346FB700B4677
:1034C4003B801346BB700023FB7297F90330002B3B
:1034D4000FDAFB7803F00F021346DB0013449B0062
:1034E40038337A6813440433FB60FB6801225A7052
:1034F4000FE0FB7803F00F021346DB0013449B003C
:1035040003F51E737A6813440433FB60FB680022DE
:103514005A70FB7803F00F03DAB2FB681A703A882A
:10352400FB68DA60FB68BA781A71FB685B78002B79
:1035340004D0FB681B789AB2FB681A81BB78022B13
:1035440002D1FB6800225A717B6893F8BC34012BCA
:1035540001D102230EE07B68012283F8BC247B683E
:103564001B68F968184601F09BFB7B68002283F80E
:10357400BC24FB7A18461037BD4680BD80B584B0A4
:1035840000AF78600B46FB7097F90330002B0FDA1D
:10359400FB7803F00F021346DB0013449B0038331F
:1035A4007A6813440433FB60FB6801225A700FE00D
:1035B400FB7803F00F021346DB0013449B0003F572
:1035C4001E737A6813440433FB60FB6800225A704C
:1035D400FB7803F00F03DAB2FB681A707B6893F888
:1035E400BC34012B01D102230EE07B68012283F855
:1035F400BC247B681B68F968184601F0D9FB7B681A
:10360400002283F8BC24002318461037BD4680BD31
:1036140080B586B000AFF8607A603B600B46FB7201
:10362400FB7A03F00F021346DB0013449B0003F5FF
:103634001E73FA68134404337B617B697A681A61E8
:103644007B693A689A617B6900221A627B6900226D
:103654005A70FB7A03F00F03DAB27B691A70FB68C5
:103664001B69012B02D17A687B695A61FB7A03F0EA
:103674000F03002B09D1FB681868FB681B69DBB2D8
:103684001A46796901F0B8FE08E0FB681868FB681F
:103694001B69DBB21A46796901F066FC00231846FF
:1036A4001837BD4680BD80B586B000AFF8607A603B
:1036B4003B600B46FB72FB7A03F00F021346DB0000
:1036C40013449B003833FA68134404337B617B69E9
:1036D4007A681A617B693A689A617B6900221A6286
:1036E4007B6901225A70FB7A03F00F03DAB27B691B
:1036F4001A70FB681B69012B02D17A687B695A61D5
:10370400FB7A03F00F03002B09D1FB681868FB68F0
:103714001B69DBB21A46796901F06EFE08E0FB68AA
:103724001868FB681B69DBB21A46796901F01CFC56
:10373400002318461837BD4680BD80B584B000AF5D
:1037440078600B46FB70FB7803F00F027B685B68C4
:103754009A4201D9012350E097F90330002B0FDA84
:10376400FB7803F00F021346DB0013449B0038334D
:103774007A6813440433FB60FB6801225A700DE03D
:10378400FA781346DB0013449B0003F51E737A6832
:1037940013440433FB60FB6800225A70FB68012267
:1037A4009A70FB7803F00F03DAB2FB681A707B6837
:1037B40093F8BC34012B01D102231EE07B68012263
:1037C40083F8BC247B681B68F968184602F0ACF8DF
:1037D400FB7803F00F03002B0AD17B6818687B6821
:1037E4001B69D9B27B6803F2C4431A4602F09CFAFF
:1037F4007B68002283F8BC24002318461037BD469A
:1038040080BD80B584B000AF78600B46FB70FB7858
:1038140003F00F027B685B689A4201D9012342E0FE
:1038240097F90330002B0FDAFB7803F00F021346ED
:10383400DB0013449B0038337A6813440433FB6081
:10384400FB6801225A700FE0FB7803F00F02134665
:10385400DB0013449B0003F51E737A68134404339E
:10386400FB60FB6800225A70FB6800229A70FB78A8
:1038740003F00F03DAB2FB681A707B6893F8BC3468
:10388400012B01D102230EE07B68012283F8BC24C2
:103894007B681B68F968184602F0B4F87B6800225C
:1038A40083F8BC24002318461037BD4680BD80B57C
:1038B40084B000AF78600B46FB7097F90330002B9F
:1038C4000CDAFB7803F00F021346DB0013449B0071
:1038D40038337A6813440433FB600CE0FB7803F05C
:1038E4000F021346DB0013449B0003F51E737A6832
:1038F40013440433FB607B681B68F968184601F0C5
:10390400D3FE0346FB72FB7A18461037BD4680BDD2
:1039140080B58AB002AF786039607B681B687B61D0
:103924007B693B613A681346DB0013449B003833E0
:103934007A6813440433FB60FB681A6AFB689B696A
:103944009A4201D901236CE0FB689A69FB681B6AFF
:10395400D31AFB61FB68DB68FA699A4202D9FB68F7
:10396400DB68FB61FB6903339B08BB612BE0FB68ED
:103974009A69FB681B6AD31AFB61FB68DB68FA6906
:103984009A4202D9FB68DB68FB61FB6903339B083D
:10399400BB61FB6819693B68DAB2FB6998B27B6862
:1039A4001B69DBB200930346786901F027FFFB68CB
:1039B4001A69FB691A44FB681A61FB681A6AFB6995
:1039C4001A44FB681A623B685A013B69134403F5C5
:1039D40010639B699BB2BA699A4209D8FB681A6A58
:1039E400FB689B699A4203D2FB689B69002BBED19A
:1039F400FB689A69FB681B6A9A4211D83B6803F01A
:103A04000F03012202FA03F3BB603B6903F5006371
:103A14005A6BBB68DB43396901F5006113404B63A2
:103A2400002318462037BD4680BD000080B588B00D
:103A340000AF786039607B681B68FB61FB69BB6120
:103A4400FB693C3304331B687B613B685A01BB69E7
:103A5400134403F530639B683B617B681B69012B4E
:103A64007BD13B6903F00803002B15D07B69614AC5
:103A7400934240F2B9803B6903F40043002B00F009
:103A8400B3803B685A01BB69134403F530631A469B
:103A94004FF400439360A7E03B6903F02003002B3D
:103AA40009D03B685A01BB69134403F530631A46D5
:103AB4002023936098E03B6903F02803002B40F037
:103AC40093807B694B4A93420FD93B6903F40043CB
:103AD400002B0AD03B685A01BB69134403F53063D9
:103AE4001A464FF4004393607EE03A681346DB00C5
:103AF40013449B0003F51E737A6813440433FB607C
:103B0400FB68DA693B685901BB690B4403F5306310
:103B14001B69C3F31203D21AFB681A623B68002BB9
:103B240014D1FB689B69002B09D17B6818687B68FA
:103B340003F2C4431A46012102F0F6F806E0FB68DA
:103B44001A69FB681B6A1A44FB681A613B68DBB29A
:103B54001946786804F046F846E07B69264A9342A1
:103B640024D13B6903F40043002B0AD03B685A017B
:103B7400BB69134403F530631A464FF40043936062
:103B840032E03B6903F02003002B08D03B685A0164
:103B9400BB69134403F530631A46202393603B68E2
:103BA400DBB21946786804F01DF81DE03B68002B71
:103BB40014D179683A681346DB0013449B000B4424
:103BC40003F525731B68002B08D17B6818687B6894
:103BD40003F2C4431A46002102F0A6F83B68DBB2A4
:103BE4001946786803F0FEFF002318462037BD46C7
:103BF40080BD00BF0A30544F0A31544F80B586B09F
:103C040000AF786039607B681B687B617B693B61CE
:103C14007B693C3304331B68FB603B685A013B6996
:103C2400134403F530639B68BB60FB68154A9342F9
:103C34000ED9BB6803F40043002B09D03B685A013A
:103C44003B69134403F530631A464FF40043936011
:103C5400786803F0B5FFFB680A4A93420CD97B6885
:103C64001B69012B08D17B6818687B6803F2C44385
:103C74001A46012102F058F8002318461837BD46A9
:103C840080BD00BF0A30544F80B485B000AF786067
:103C94000B46FB7013463B807B681B685B6ABB600A
:103CA400FB78002B07D13B8819047B681B68BA6832
:103CB4000A439A6228E07B681B689B6A1B0CBA68FB
:103CC4001344BB600023FB730DE07B681A68FB7B25
:103CD40040339B0013445B681B0CBA681344BB60FD
:103CE400FB7B0133FB73FA7BFB78013B9A42ECD3F9
:103CF4003B8818047B681968FB78013BBA68024367
:103D040040339B000B445A60002318461437BD46C9
:103D14005DF8047B704780B483B000AF78600B46D5
:103D24007B807B681B687A885A62002318460C37AC
:103D3400BD465DF8047B704780B483B000AF786003
:103D44000B46FB7000BF0C37BD465DF8047B704723
:103D540080B586B000AF78607B68002B01D1012369
:103D640067E27B681B6803F00103002B75D0884B66
:103D74009B6803F00C03042B0CD0854B9B6803F069
:103D84000C03082B12D1824B5B6803F48003B3F558
:103D9400800F0BD17E4B1B6803F40033002B5BD0E8
:103DA4007B685B68002B57D1012342E27B685B6828
:103DB400B3F5803F06D1764B1B68754A43F48033D4
:103DC40013601DE07B685B68B3F5A02F0CD1704BCA
:103DD4001B686F4A43F4802313606D4B1B686C4A65
:103DE40043F4803313600BE0694B1B68684A23F487
:103DF40080331360664B1B68654A23F48023136089
:103E04007B685B68002B13D0FDF7FCFA386108E08F
:103E1400FDF7F8FA02463B69D31A642B01D9032350
:103E240007E25B4B1B6803F40033002BF0D014E073
:103E3400FDF7E8FA386108E0FDF7E4FA02463B6969
:103E4400D31A642B01D90323F3E1514B1B6803F408
:103E54000033002BF0D100E000BF7B681B6803F047
:103E64000203002B63D04A4B9B6803F00C03002B26
:103E74000BD0474B9B6803F00C03082B1CD1444B1D
:103E84005B6803F48003002B16D1414B1B6803F0DD
:103E94000203002B05D07B68DB68012B01D00123D2
:103EA400C7E13B4B1B6823F0F8027B681B69DB000E
:103EB400374913430B603AE07B68DB68002B20D062
:103EC400344B01221A60FDF79DFA386108E0FDF7D2
:103ED40099FA02463B69D31A022B01D90323A8E1BC
:103EE4002B4B1B6803F00203002BF0D0284B1B68FC
:103EF40023F0F8027B681B69DB00254913430B6040
:103F040015E0244B00221A60FDF77CFA386108E0C2
:103F1400FDF778FA02463B69D31A022B01D9032331
:103F240087E11B4B1B6803F00203002BF0D17B6875
:103F34001B6803F00803002B36D07B685B69002BF9
:103F440016D0154B01221A60FDF75CFA386108E0BF
:103F5400FDF758FA02463B69D31A022B01D9032311
:103F640067E10B4B5B6F03F00203002BF0D01BE007
:103F7400094B00221A60FDF745FA38610EE0FDF79F
:103F840041FA02463B69D31A022B07D9032350E1B5
:103F94000038024000004742800E4742884B5B6F66
:103FA40003F00203002BEAD17B681B6803F00403CF
:103FB400002B00F097800023FB75814B1B6C03F0F2
:103FC4008053002B0FD10023BB607D4B1B6C7C4ABC
:103FD40043F0805313647A4B1B6C03F08053BB6033
:103FE400BB680123FB75774B1B6803F48073002BBC
:103FF40018D1744B1B68734A43F480731360FDF744
:1040040001FA386108E0FDF7FDF902463B69D31A6D
:10401400022B01D903230CE16A4B1B6803F4807360
:10402400002BF0D07B689B68012B06D1644B1B6F7F
:10403400634A43F0010313671CE07B689B68052B0C
:104044000CD15F4B1B6F5E4A43F0040313675C4B58
:104054001B6F5B4A43F0010313670BE0584B1B6F64
:10406400574A23F001031367554B1B6F544A23F03F
:10407400040313677B689B68002B15D0FDF7C2F916
:1040840038610AE0FDF7BEF902463B69D31A41F2F2
:104094008832934201D90323CBE0494B1B6F03F0D1
:1040A4000203002BEED014E0FDF7ACF938610AE00E
:1040B400FDF7A8F902463B69D31A41F288329342CC
:1040C40001D90323B5E03E4B1B6F03F00203002B21
:1040D400EED1FB7D012B05D1394B1B6C384A23F003
:1040E400805313647B689B69002B00F0A180344BE0
:1040F4009B6803F00C03082B5CD07B689B69022B44
:1041040041D1314B00221A60FDF77CF9386108E097
:10411400FDF778F902463B69D31A022B01D9032330
:1041240087E0274B1B6803F00073002BF0D17B68FA
:10413400DA697B681B6A1A437B685B6A9B011A43D2
:104144007B689B6A5B08013B1B041A437B68DB6A40
:104154001B061B4913434B601B4B01221A60FDF7DE
:1041640051F9386108E0FDF74DF902463B69D31A6D
:10417400022B01D903235CE0114B1B6803F000738D
:10418400002BF0D054E0104B00221A60FDF73AF9EE
:10419400386108E0FDF736F902463B69D31A022B71
:1041A40001D9032345E0064B1B6803F00073002B81
:1041B400F0D13DE07B689B69012B07D1012338E0F6
:1041C4000038024000700040600047421B4B5B68AF
:1041D400FB607B689B69012B28D0FB6803F4800299
:1041E4007B68DB699A4221D1FB6803F03F027B685C
:1041F4001B6A9A421AD1FA6847F6C07313407A6868
:10420400526A9201934211D1FB6803F440327B68F5
:104214009B6A5B08013B1B049A4207D1FB6803F0CD
:1042240070627B68DB6A1B069A4201D0012300E0BE
:10423400002318461837BD4680BD00BF0038024031
:1042440080B584B000AF786039607B68002B01D101
:104254000123CCE0684B1B6803F007033A689A42D9
:104264000CD9654B3A68D2B21A70634B1B6803F0E1
:1042740007033A689A4201D00123B8E07B681B68BF
:1042840003F00203002B20D07B681B6803F00403B7
:10429400002B05D0594B9B68584A43F4E053936074
:1042A4007B681B6803F00803002B05D0534B9B6805
:1042B400524A43F460439360504B9B6823F0F002EE
:1042C4007B689B684D4913438B607B681B6803F0D4
:1042D4000103002B44D07B685B68012B07D1474B5B
:1042E4001B6803F40033002B19D101237FE07B68A2
:1042F4005B68022B03D07B685B68032B07D13F4BC1
:104304001B6803F00073002B09D101236FE03B4BC2
:104314001B6803F00203002B01D1012367E0374B34
:104324009B6823F003027B685B68344913438B600A
:10433400FDF768F8F8600AE0FDF764F80246FB68E8
:10434400D31A41F28832934201D903234FE02B4B15
:104354009B6803F00C027B685B689B009A42EBD17C
:10436400254B1B6803F007033A689A420CD2224B90
:104374003A68D2B21A70204B1B6803F007033A68FC
:104384009A4201D0012332E07B681B6803F00403E6
:10439400002B08D0194B9B6823F4E0527B68DB6840
:1043A400164913438B607B681B6803F00803002BDA
:1043B40009D0124B9B6823F460427B681B69DB00C5
:1043C4000E4913438B6000F021F802460B4B9B68A7
:1043D4001B0903F00F030A49CB5C22FA03F3094AD1
:1043E4001360094B1B681846FCF7C8FF00231846E6
:1043F4001037BD4680BD00BF003C0240003802407B
:10440400D4810008D4030020D80300202DE9B04F44
:1044140090B000AF00237B630023FB6300233B6366
:104424000023BB63594B9B6803F00C03082B0DD08E
:10443400082B00F2A180002B02D0042B03D09BE0B8
:10444400534BBB639BE0534BBB6398E04F4B5B68A0
:1044540003F03F037B634D4B5B6803F48003002B45
:1044640028D04A4B5B689B0900223B627A623B6A14
:10447400C3F308000021474B03FB01F2002300FBB8
:1044840003F31344434AA0FB0212FA620A46BA62D7
:10449400FA6A1344FB627B6B0022BB61FA61D7E9C1
:1044A4000623D7E90A01FBF793FE02460B4613469F
:1044B400FB6353E0354B5B689B0900223B617A61E7
:1044C4003B69C3F3080A4FF0000B52465B464FF0BA
:1044D40000004FF00001590141EAD2615001024647
:1044E4000B46B2EB0A0863EB0B094FF000024FF0E6
:1044F40000034FEA891343EA98634FEA8812B2EB48
:10450400080463EB09054FF000024FF00003EB00D1
:1045140043EA5473E20014461D4614EB0A033B605D
:1045240045EB0B037B604FF000024FF00003D7E92B
:10453400004529468B02214643EA915321468A02CB
:10454400104619467B6B0022BB60FA60D7E9022350
:10455400FBF73EFE02460B461346FB630B4B5B68C0
:104564001B0C03F0030301335B003B63FA6B3B6BEF
:10457400B2FBF3F3BB6302E0054BBB6300BFBB6B51
:1045840018464037BD46BDE8B08F00BF0038024032
:104594000024F40040787D0180B400AF034B1B6815
:1045A4001846BD465DF8047B704700BFD403002065
:1045B40084B080B584B000AF786007F11C0080E857
:1045C4000E003B6B012B22D17B689B6B23F4803262
:1045D4007B689A637B68DB6823F4840323F04003DD
:1045E4007A68D3607B68DB6823F440127B68DA6006
:1045F400FB6C012B05D17B68DB6843F480127B687C
:10460400DA60786801F0EEFB0346FB731AE07B681E
:10461400DB6843F040027B68DA60786801F0E2FB13
:104624000346FB733B6C002B06D17B689B6B43F406
:1046340080327B689A6305E07B689B6B23F480324D
:104644007B689A63BB6A012B0BD17B689B6843F040
:1046540006027B689A607B689B6843F020027B6853
:104664009A60FB7B18461037BD46BDE8804004B015
:104674007047000080B487B000AFF860B96013469B
:10468400FB71FB79022B65D1BB68414A934206D981
:10469400BB68404A934202D20F237B6162E0BB684D
:1046A4003C4A934206D3BB683B4A934202D20E2350
:1046B4007B6157E0BB68384A934206D3BB68374AEC
:1046C400934202D20D237B614CE0BB68334A934290
:1046D40006D3BB68324A934202D80C237B6141E083
:1046E400BB682F4A934206D9BB682E4A934202D82C
:1046F4000B237B6136E0BB682A4A934206D9BB6828
:10470400294A934202D80A237B612BE0BB68264ADC
:10471400934206D9BB68254A934202D209237B619E
:1047240020E0BB68214A934206D3BB68204A9342E7
:1047340002D808237B6115E0BB681D4A934206D961
:10474400BB681C4A934202D207237B610AE006231A
:104754007B6107E0FB79002B02D109237B6101E037
:1047640009237B61FB68DB6823F47052FB68DA6021
:10477400FB68DA687B699B0203F470531A43FB6895
:10478400DA60002318461C37BD465DF8047B704789
:10479400BFACD800C0E1E4000024F400807306013B
:1047A4009F491A01FF2C31013FA44C0100366E01D0
:1047B4001FABA6010048E80180B483B000AF786065
:1047C4007B689B6843F001027B689A60002318466B
:1047D4000C37BD465DF8047B704780B483B000AFEE
:1047E40078607B689B6823F001027B689A600023F1
:1047F40018460C37BD465DF8047B704780B584B01D
:1048040000AF78600B46FB700023FB607B68DB68BD
:1048140023F0C0427B68DA60FB78012B15D17B68FA
:10482400DB6843F000527B68DA600120FCF7F6FD98
:10483400FB680133FB60786801F045FA0346012BFD
:104844001ED0FB68312BF0D91AE0FB78002B15D170
:104854007B68DB6843F080427B68DA600120FCF708
:10486400DDFDFB680133FB60786801F02CFA034638
:10487400002B05D0FB68312BF0D901E0012305E0C2
:10488400FB68322B01D1012300E0002318461037C6
:10489400BD4680BD84B080B586B000AF786007F1B6
:1048A400240080E80E000023FB757B68FB60002376
:1048B4003B6109E07A683B6940339B001344002262
:1048C4005A603B6901333B613B690E2BF2D9FB6CA7
:1048D400002B1CD1FB6803F500635B68FA6802F5E2
:1048E400006243F0020353607B689B6B43F4001245
:1048F4007B689A637B689B6B23F400227B689A63D2
:104904007B689B6B23F480227B689A630BE07B6853
:104914009B6B23F400127B689A637B689B6B43F464
:1049240000227B689A63FB6803F560631A460023E0
:104934001360FB6803F500631946FB6803F5006325
:104944001A460B681360BB6B012B0CD1FB6A002B5E
:1049540004D10021786800F065F908E00121786845
:1049640000F060F903E00321786800F05BF910219E
:10497400786800F0F3F80346002B01D00123FB759F
:10498400786800F01FF90346002B01D00123FB7562
:10499400FB6803F500631A4600231361FB6803F503
:1049A40000631A4600235361FB6803F500631A464B
:1049B4000023D36100233B6143E03B695A01FB6858
:1049C400134403F510631B6803F00043B3F1004F75
:1049D40018D13B69002B0AD13B695A01FB68134487
:1049E40003F510631A464FF00063136013E03B694C
:1049F4005A01FB68134403F510631A464FF09043C1
:104A0400136008E03B695A01FB68134403F5106323
:104A14001A46002313603B695A01FB68134403F5EB
:104A240010631A46002313613B695A01FB6813445F
:104A340003F510631A464FF67F3393603B690133E5
:104A44003B617B6A3A699A42B7D300233B6143E0F6
:104A54003B695A01FB68134403F530631B6803F098
:104A64000043B3F1004F18D13B69002B0AD13B69D5
:104A74005A01FB68134403F530631A464FF0006390
:104A8400136013E03B695A01FB68134403F5306378
:104A94001A464FF09043136008E03B695A01FB68E3
:104AA400134403F530631A46002313603B695A012B
:104AB400FB68134403F530631A46002313613B6912
:104AC4005A01FB68134403F530631A464FF67F33EB
:104AD40093603B6901333B617B6A3A699A42B7D37D
:104AE400FB6803F500631B69FA6802F5006223F4AE
:104AF400807313617B6800229A617B686FF0804247
:104B04005A613B6B002B05D17B689B6943F0100213
:104B14007B689A617B689A690F4B13437A68936147
:104B2400FB6B002B05D07B689B6943F008027B6814
:104B34009A61FB6C012B07D17B689B6943F080432E
:104B440043F004037A689361FB7D18461837BD4629
:104B5400BDE8804004B0704700383C8080B485B024
:104B640000AF786039600023FB60FB680133FB60B1
:104B7400FB68134A934201D903231BE07B681B693A
:104B8400002BF2DA0023FB603B689B0143F0200218
:104B94007B681A61FB680133FB60FB68084A934237
:104BA40001D9032306E07B681B6903F02003202B53
:104BB400F0D0002318461437BD465DF8047B7047D7
:104BC400400D030080B485B000AF78600023FB6023
:104BD400FB680133FB60FB68114A934201D903234C
:104BE40018E07B681B69002BF2DA0023FB607B680A
:104BF40010221A61FB680133FB60FB68084A934288
:104C040001D9032306E07B681B6903F01003102B12
:104C1400F0D0002318461437BD465DF8047B704776
:104C2400400D030080B485B000AF78600B46FB7084
:104C34007B68FB60FB6803F500631A68FB78F9681E
:104C440001F5006113430B60002318461437BD4679
:104C54005DF8047B704780B487B000AF78607B68F0
:104C64003B613B6903F500639B6803F00603FB604B
:104C7400FB68002B02D10023FB750AE0FB68022BC2
:104C840002D0FB68062B02D10223FB7501E00F233F
:104C9400FB75FB7D18461C37BD465DF8047B7047E9
:104CA40080B485B000AF786039607B68FB603B6896
:104CB4001B78BB603B685B78012B3AD1FB6803F53A
:104CC4000063DA693B681B7803F00F03012101FAE2
:104CD40003F39BB2F96801F500611343CB61BB6830
:104CE4005A01FB68134403F510631B6803F4004383
:104CF400002B55D1BB685A01FB68134403F51063BC
:104D04001A683B68DB68C3F30A013B681B799B04A0
:104D14001943BB689B050B431343BA685101FA68F6
:104D24000A4402F5106243F0805343F400431360D5
:104D340036E0FB6803F50063DA693B681B7803F02F
:104D44000F03012101FA03F31B04F96801F5006163
:104D54001343CB61BB685A01FB68134403F530630A
:104D64001B6803F40043002B1AD1BB685A01FB688B
:104D7400134403F530631A683B68DB68C3F30A0124
:104D84003B681B799B040B431343BA685101FA68CF
:104D94000A4402F5306243F0805343F40043136045
:104DA400002318461437BD465DF8047B70470000A5
:104DB40080B485B000AF786039607B68FB603B6885
:104DC4001B78BB603B685B78012B61D1BB685A01DF
:104DD400FB68134403F510631B6803F00043B3F14D
:104DE400004F1FD1BB685A01FB68134403F51063DD
:104DF4001B68BA685101FA680A4402F5106243F06C
:104E040000631360BB685A01FB68134403F5106325
:104E14001B68BA685101FA680A4402F5106243F04B
:104E240080431360FB6803F50063DA6B3B681B780F
:104E340003F00F03012101FA03F39BB2DB43F9688A
:104E440001F500611340CB63FB6803F50063DA6985
:104E54003B681B7803F00F03012101FA03F39BB2B3
:104E6400DB43F96801F500611340CB61BB685A016B
:104E7400FB68134403F510631A68BB685901FB68A7
:104E84000B4403F510631946354B13400B6060E087
:104E9400BB685A01FB68134403F530631B6803F0D5
:104EA4000043B3F1004F1FD1BB685A01FB681344A0
:104EB40003F530631B68BA685101FA680A4402F5C5
:104EC400306243F000631360BB685A01FB6813440B
:104ED40003F530631B68BA685101FA680A4402F5A5
:104EE400306243F080431360FB6803F50063DA6BC0
:104EF4003B681B7803F00F03012101FA03F31B0441
:104F0400DB43F96801F500611340CB63FB6803F5EB
:104F14000063DA693B681B7803F00F03012101FA8F
:104F240003F31B04DB43F96801F500611340CB6113
:104F3400BB685A01FB68134403F530631A68BB6805
:104F44005901FB680B4403F530631946054B1340C4
:104F54000B60002318461437BD465DF8047B704788
:104F6400007833EC0078F3EF80B58AB002AFF860D4
:104F7400B9601346FB71FB68FB61BB681B78BB61BE
:104F8400BB685B78012B40F05C81BB689B69002B9C
:104F940032D1BB695A01FB69134403F510631B69E1
:104FA400BA695101FA690A4402F5106223F0FF5309
:104FB40023F4C0131361BB695A01FB69134403F55D
:104FC40010631B69BA695101FA690A4402F5106257
:104FD40043F400231361BB695A01FB69134403F5CD
:104FE40010631B69BA695101FA690A4402F5106237
:104FF400DB0CDB04136174E0BB695A01FB691344E5
:1050040003F510631B69BA695101FA690A4402F590
:105014001062DB0CDB041361BB695A01FB691344A6
:1050240003F510631B69BA695101FA690A4402F570
:10503400106223F0FF5323F4C0131361BB695A01B8
:10504400FB69134403F510631A69BB689969BB686B
:10505400DB680B44591EBB68DB68B1FBF3F3D9046E
:105064009D4B0B40B9694801F969014401F5106190
:1050740013430B61BB695A01FB69134403F51063C5
:105084001A69BB689B69C3F31203B9694801F969DA
:10509400014401F5106113430B61BB681B79012BBB
:1050A4001FD1BB695A01FB69134403F510631B69E3
:1050B400BA695101FA690A4402F5106223F0C04347
:1050C4001361BB695A01FB69134403F510631B693F
:1050D400BA695101FA690A4402F5106243F00053B7
:1050E4001361FB79012B4BD1BB685B69002B09D0A1
:1050F400BB695A01FB69134403F510631A46BB6884
:105104005B695361BB681B79012B28D1FB6903F5EB
:1051140000639B6803F48073002B10D1BB695A01B0
:10512400FB69134403F510631B68BA695101FA69FA
:105134000A4402F5106243F0005313600FE0BB69A8
:105144005A01FB69134403F510631B68BA695101E2
:10515400FA690A4402F5106243F080531360BB6994
:105164005A01FB69134403F510631B68BA695101C2
:10517400FA690A4402F5106243F00443136033E110
:10518400BB695A01FB69134403F510631B68BA69D0
:105194005101FA690A4402F5106243F004431360B2
:1051A400BB681B79012B15D0BB689B69002B00F0F1
:1051B4001B81FB6903F500635A6BBB681B7803F022
:1051C4000F03012101FA03F3F96901F500611343A7
:1051D4004B6309E1FB6903F500639B6803F4807387
:1051E400002B10D1BB695A01FB69134403F510630A
:1051F4001B68BA695101FA690A4402F5106243F066
:10520400005313600FE0BB695A01FB69134403F5B3
:1052140010631B68BA695101FA690A4402F5106205
:1052240043F080531360BB681969BB681A78BB6884
:105234009B6998B2FB7900930346F86800F0DEFAA4
:10524400D2E0BB695A01FB69134403F530631B695F
:10525400BA695101FA690A4402F53062DB0CDB04D5
:105264001361BB695A01FB69134403F530631B697D
:10527400BA695101FA690A4402F5306223F0FF5316
:1052840023F4C0131361BB689B69002B26D1BB694F
:105294005A01FB69134403F530631A69BB68DB6880
:1052A400C3F31203B9694801F969014401F5306196
:1052B40013430B61BB695A01FB69134403F5306363
:1052C4001B69BA695101FA690A4402F5306243F470
:1052D400002313613AE000BF0000F81FBB689A691D
:1052E400BB68DB6813445A1EBB68DB68B2FBF3F38C
:1052F400FB82BB68DB68FA8A03FB02F2BB68DA61F3
:10530400BB695A01FB69134403F530631A69FB8ACC
:10531400D904384B0B40B9694801F969014401F5D6
:10532400306113430B61BB695A01FB69134403F5F4
:1053340030631A69BB68DB69C3F31203B9694801B6
:10534400F969014401F5306113430B61FB79012BC9
:105354000DD1BB681B69002B09D0BB681969BB69F7
:105364005A01FB69134403F530630A465A61BB686A
:105374001B79012B28D1FB6903F500639B6803F4B7
:105384008073002B10D1BB695A01FB69134403F5E8
:1053940030631B68BA695101FA690A4402F5306244
:1053A40043F0005313600FE0BB695A01FB691344D7
:1053B40003F530631B68BA695101FA690A4402F5BE
:1053C400306243F080531360BB695A01FB69134494
:1053D40003F530631B68BA695101FA690A4402F59E
:1053E400306243F004431360002318462037BD465F
:1053F40080BD00BF0000F81F80B487B000AFF86024
:10540400B9601346FB71FB687B61BB681B783B6129
:10541400BB685B78012B40F0CE80BB689B69002B96
:1054240032D13B695A017B69134403F510631B694C
:105434003A6951017A690A4402F5106223F0FF5374
:1054440023F4C01313613B695A017B69134403F5C8
:1054540010631B693A6951017A690A4402F51062C2
:1054640043F4002313613B695A017B69134403F538
:1054740010631B693A6951017A690A4402F51062A2
:10548400DB0CDB0413614EE03B695A017B69134476
:1054940003F510631B693A6951017A690A4402F5FC
:1054A4001062DB0CDB0413613B695A017B69134412
:1054B40003F510631B693A6951017A690A4402F5DC
:1054C400106223F0FF5323F4C0131361BB689A697D
:1054D400BB68DB689A4203D9BB68DA68BB689A6127
:1054E4003B695A017B69134403F510631B693A69EC
:1054F40051017A690A4402F5106243F400231361EE
:105504003B695A017B69134403F510631A69BB684C
:105514009B69C3F31203396948017969014401F5B0
:10552400106113430B61FB79012B1ED1BB685B69CE
:10553400002B09D03B695A017B69134403F51063BE
:105544001A46BB685B6953613B695A017B69134422
:1055540003F510631B683A6951017A690A4402F53C
:10556400106243F00443136097E03B695A017B697E
:10557400134403F510631B683A6951017A690A44BC
:1055840002F5106243F004431360BB689B69002B6F
:1055940000F083807B6903F500635A6BBB681B785A
:1055A40003F00F03012101FA03F3796901F50061A6
:1055B40013434B6371E03B695A017B69134403F560
:1055C40030631B693A6951017A690A4402F5306211
:1055D400DB0CDB0413613B695A017B69134403F55B
:1055E40030631B693A6951017A690A4402F53062F1
:1055F40023F0FF5323F4C0131361BB689B69002B92
:1056040003D0BB68DA68BB689A61BB68DA68BB68B8
:10561400DA613B695A017B69134403F530631B6902
:105624003A6951017A690A4402F5306243F400236D
:1056340013613B695A017B69134403F530631A69AA
:10564400BB68DB69C3F31203396948017969014412
:1056540001F5306113430B61FB79012B0DD1BB685C
:105664001B69002B09D0BB6819693B695A017B6926
:10567400134403F530630A465A613B695A017B6956
:10568400134403F530631B683A6951017A690A448B
:1056940002F5306243F004431360002318461C37BC
:1056A400BD465DF8047B704780B487B000AF786076
:1056B40039600023FB600023FB757B683B613B681A
:1056C4005B78012B4AD13B681B785A013B69134430
:1056D40003F510631B6803F00043B3F1004F40F07F
:1056E40086803B681B785A013B69134403F51063B9
:1056F4001B683A68127851013A690A4402F510624B
:1057040043F0006313603B681B785A013B69134400
:1057140003F510631B683A68127851013A690A4428
:1057240002F5106243F080431360FB680133FB60B1
:10573400FB6842F21072934202D90123FB7556E0D2
:105744003B681B785A013B69134403F510631B68DB
:1057540003F00043B3F1004FE7D048E03B681B7807
:105764005A013B69134403F530631B6803F000439B
:10577400B3F1004F3BD13B681B785A013B6913449A
:1057840003F530631B683A68127851013A690A4498
:1057940002F5306243F0006313603B681B785A01E2
:1057A4003B69134403F530631B683A68127851016E
:1057B4003A690A4402F5306243F080431360FB689F
:1057C4000133FB60FB6842F21072934202D9012359
:1057D400FB750CE03B681B785A013B69134403F5E5
:1057E40030631B6803F00043B3F1004FE7D0FB7D47
:1057F40018461C37BD465DF8047B704780B489B0F9
:1058040000AFF860B96011461A460B46FB711346A7
:10581400BB80FB687B61BB68FB6197F82830002B79
:1058240023D1BB8803339B083B610023BB6118E091
:10583400FB791A037B69134403F580531A46FB6909
:105844001B681360FB690133FB61FB690133FB6176
:10585400FB690133FB61FB690133FB61BB69013304
:10586400BB61BA693B699A42E2D3002318462437E4
:10587400BD465DF8047B704780B48BB000AFF86020
:10588400B9601346FB80FB68BB61BB687B62FB8825
:105894009B089BB27B61FB8803F00303FB8300231B
:1058A4003B6214E0BB6903F580531A687B6A1A6093
:1058B4007B6A01337B627B6A01337B627B6A0133DF
:1058C4007B627B6A01337B623B6A01333B623A6AE7
:1058D4007B699A42E6D3FB8B002B1ED000233B62EC
:1058E400BB6903F580531A4607F1100312681A6066
:1058F4003A693B6ADBB2DB0022FA03F3DAB27B6A71
:105904001A703B6A01333B627B6A01337B62FB8B17
:10591400013BFB83FB8B002BEAD17B6A18462C37B7
:10592400BD465DF8047B704780B485B000AF7860F5
:1059340039607B68FB603B681B78BB603B685B78C5
:10594400012B2CD1BB685A01FB68134403F5106387
:105954001B68002B12DBBB68002B0FD0BB685A01FD
:10596400FB68134403F510631B68BA685101FA68B5
:105974000A4402F5106223F080431360BB685A01A5
:10598400FB68134403F510631B68BA685101FA6895
:105994000A4402F5106243F4001313602BE0BB6861
:1059A4005A01FB68134403F530631B68002B12DBB8
:1059B400BB68002B0FD0BB685A01FB68134403F586
:1059C40030631B68BA685101FA680A4402F5306210
:1059D40023F080431360BB685A01FB68134403F54A
:1059E40030631B68BA685101FA680A4402F53062F0
:1059F40043F400131360002318461437BD465DF8C2
:105A0400047B704780B485B000AF786039607B68F0
:105A1400FB603B681B78BB603B685B78012B28D13B
:105A2400BB685A01FB68134403F510631B68BA682A
:105A34005101FA680A4402F5106223F4001313605A
:105A44003B681B79032B03D03B681B79022B38D1AD
:105A5400BB685A01FB68134403F510631B68BA68FA
:105A64005101FA680A4402F5106243F0805313604E
:105A740027E0BB685A01FB68134403F530631B68D5
:105A8400BA685101FA680A4402F5306223F400133B
:105A940013603B681B79032B03D03B681B79022BF3
:105AA4000FD1BB685A01FB68134403F530631B68CC
:105AB400BA685101FA680A4402F5306243F080532F
:105AC4001360002318461437BD465DF8047B704705
